{
  "_format": "hh-sol-artifact-1",
  "contractName": "counter",
  "sourceName": "contracts/Counter.sol",
  "abi": [
    {
      "inputs": [],
      "name": "NFTadd",
      "outputs": [],
      "stateMutability": "nonpayable",
      "type": "function"
    },
    {
      "inputs": [],
      "name": "NFTsub",
      "outputs": [],
      "stateMutability": "nonpayable",
      "type": "function"
    },
    {
      "inputs": [],
      "name": "count",
      "outputs": [
        {
          "internalType": "uint256",
          "name": "",
          "type": "uint256"
        }
      ],
      "stateMutability": "view",
      "type": "function"
    },
    {
      "inputs": [],
      "name": "totalNFT",
      "outputs": [
        {
          "internalType": "uint256",
          "name": "",
          "type": "uint256"
        }
      ],
      "stateMutability": "view",
      "type": "function"
    }
  ],
  "bytecode": "0x608060405234801561001057600080fd5b506101e6806100206000396000f3fe608060405234801561001057600080fd5b506004361061004b5760003560e01c80624563791461005057806306661abd1461006e578063686f824f1461008c5780639c1fe82014610096575b600080fd5b6100586100a0565b60405161006591906100fe565b60405180910390f35b6100766100a9565b60405161008391906100fe565b60405180910390f35b6100946100af565b005b61009e6100ca565b005b60008054905090565b60005481565b60016000808282546100c19190610148565b92505081905550565b60016000808282546100dc919061017c565b92505081905550565b6000819050919050565b6100f8816100e5565b82525050565b600060208201905061011360008301846100ef565b92915050565b7f4e487b7100000000000000000000000000000000000000000000000000000000600052601160045260246000fd5b6000610153826100e5565b915061015e836100e5565b925082820390508181111561017657610175610119565b5b92915050565b6000610187826100e5565b9150610192836100e5565b92508282019050808211156101aa576101a9610119565b5b9291505056fea2646970667358221220abffa290684c08e197b879feb7e4539a0c50960df2eeda022740ba9b2b3edfcc64736f6c63430008130033",
  "linkReferences": {},
  "deployedLinkReferences": {}
}